{
  "contractName": "Simple",
  "abi": [
    {
      "anonymous": false,
      "inputs": [
        {
          "indexed": false,
          "internalType": "string",
          "name": "_message",
          "type": "string"
        }
      ],
      "name": "CountChanged",
      "type": "event"
    },
    {
      "constant": true,
      "inputs": [],
      "name": "count",
      "outputs": [
        {
          "internalType": "uint256",
          "name": "",
          "type": "uint256"
        }
      ],
      "payable": false,
      "stateMutability": "view",
      "type": "function"
    },
    {
      "constant": false,
      "inputs": [
        {
          "internalType": "uint256",
          "name": "_newCount",
          "type": "uint256"
        }
      ],
      "name": "setCount",
      "outputs": [],
      "payable": false,
      "stateMutability": "nonpayable",
      "type": "function"
    },
    {
      "constant": false,
      "inputs": [],
      "name": "incr",
      "outputs": [],
      "payable": false,
      "stateMutability": "nonpayable",
      "type": "function"
    },
    {
      "constant": false,
      "inputs": [],
      "name": "decr",
      "outputs": [],
      "payable": false,
      "stateMutability": "nonpayable",
      "type": "function"
    }
  ],
  "bytecode": "0x6080604052600a60005534801561001557600080fd5b50610255806100256000396000f3fe608060405234801561001057600080fd5b506004361061004c5760003560e01c806306661abd14610051578063119fbbd41461006f578063d14e62b814610079578063d9f2ac8a146100a7575b600080fd5b6100596100b1565b6040518082815260200191505060405180910390f35b6100776100b7565b005b6100a56004803603602081101561008f57600080fd5b8101908080359060200190929190505050610132565b005b6100af6101a4565b005b60005481565b60008081548092919060010191905055507f09a25b4dad709229fcdc7c58fa035415276a0f4fe0412f2ff49d0d6907a540806040518080602001828103825260128152602001807f636f756e7420494e4352656d656e74656421000000000000000000000000000081525060200191505060405180910390a1565b806000819055507f09a25b4dad709229fcdc7c58fa035415276a0f4fe0412f2ff49d0d6907a5408060405180806020018281038252600e8152602001807f6e657720636f756e74207365742100000000000000000000000000000000000081525060200191505060405180910390a150565b6000808154809291906001900391905055507f09a25b4dad709229fcdc7c58fa035415276a0f4fe0412f2ff49d0d6907a540806040518080602001828103825260128152602001807f636f756e742044454352656d656e74656421000000000000000000000000000081525060200191505060405180910390a156fea265627a7a723158202568573b07efbc61fb26c5dbece7fb3220dde1a3d151e164491bc88066a9b79d64736f6c63430005100032",
  "source": "// SPDX-License-Identifier: MIT\npragma solidity >=0.4.21 <0.7.0;\n\ncontract Simple {\n    event CountChanged(string _message);\n    \n    uint public count = 10;\n \n    function setCount(uint _newCount) public {\n        count = _newCount;\n        emit CountChanged(\"new count set!\");\n    }\n    \n    function incr() public {\n        count++;\n        emit CountChanged(\"count INCRemented!\");\n    }\n    \n    function decr() public {\n        count--;\n        emit CountChanged(\"count DECRemented!\");\n    }\n    \n}",
  "sourcePath": "/Users/ilja/Dropbox/bc/truffle_play/contracts/Simple.sol",
  "compiler": {
    "name": "solc",
    "version": "0.5.16+commit.9c3226ce.Emscripten.clang"
  },
  "schemaVersion": "3.3.4",
  "updatedAt": "2021-04-16T11:53:35.925Z",
  "networkType": "ethereum",
  "devdoc": {
    "methods": {}
  },
  "userdoc": {
    "methods": {}
  }
}