{
  "contractName": "Item",
  "abi": [
    {
      "inputs": [
        {
          "internalType": "contract ItemManager",
          "name": "_parentContract",
          "type": "address"
        },
        {
          "internalType": "uint256",
          "name": "_index",
          "type": "uint256"
        },
        {
          "internalType": "uint256",
          "name": "_priceInWei",
          "type": "uint256"
        }
      ],
      "stateMutability": "nonpayable",
      "type": "constructor"
    },
    {
      "stateMutability": "nonpayable",
      "type": "fallback"
    },
    {
      "inputs": [],
      "name": "index",
      "outputs": [
        {
          "internalType": "uint256",
          "name": "",
          "type": "uint256"
        }
      ],
      "stateMutability": "view",
      "type": "function"
    },
    {
      "inputs": [],
      "name": "priceInWei",
      "outputs": [
        {
          "internalType": "uint256",
          "name": "",
          "type": "uint256"
        }
      ],
      "stateMutability": "view",
      "type": "function"
    },
    {
      "stateMutability": "payable",
      "type": "receive"
    }
  ],
  "bytecode": "0x608060405234801561001057600080fd5b506040516105c93803806105c9833981810160405281019061003291906100b3565b816000819055508060018190555082600260006101000a81548173ffffffffffffffffffffffffffffffffffffffff021916908373ffffffffffffffffffffffffffffffffffffffff16021790555050505061017e565b60008151905061009881610150565b92915050565b6000815190506100ad81610167565b92915050565b6000806000606084860312156100c857600080fd5b60006100d686828701610089565b93505060206100e78682870161009e565b92505060406100f88682870161009e565b9150509250925092565b600061010d82610126565b9050919050565b600061011f82610102565b9050919050565b600073ffffffffffffffffffffffffffffffffffffffff82169050919050565b6000819050919050565b61015981610114565b811461016457600080fd5b50565b61017081610146565b811461017b57600080fd5b50565b61043c8061018d6000396000f3fe60806040526004361061002d5760003560e01c80632986c0e5146101e85780633c8da58814610213576101d9565b366101d957346001541115610077576040517f08c379a000000000000000000000000000000000000000000000000000000000815260040161006e90610347565b60405180910390fd5b6000600260009054906101000a900473ffffffffffffffffffffffffffffffffffffffff1673ffffffffffffffffffffffffffffffffffffffff16346000546040516024016100c69190610387565b6040516020818303038152906040527f800fb83f000000000000000000000000000000000000000000000000000000007bffffffffffffffffffffffffffffffffffffffffffffffffffffffff19166020820180517bffffffffffffffffffffffffffffffffffffffffffffffffffffffff83818316178352505050506040516101509190610330565b60006040518083038185875af1925050503d806000811461018d576040519150601f19603f3d011682016040523d82523d6000602084013e610192565b606091505b50509050806101d6576040517f08c379a00000000000000000000000000000000000000000000000000000000081526004016101cd90610367565b60405180910390fd5b50005b3480156101e557600080fd5b50005b3480156101f457600080fd5b506101fd61023e565b60405161020a9190610387565b60405180910390f35b34801561021f57600080fd5b50610228610244565b6040516102359190610387565b60405180910390f35b60005481565b60015481565b6000610255826103a2565b61025f81856103ad565b935061026f8185602086016103d3565b80840191505092915050565b60006102886022836103b8565b91507f6f6e6c792066756c6c204f52204d4f5245207061796d656e747320616c6c6f7760008301527f65640000000000000000000000000000000000000000000000000000000000006020830152604082019050919050565b60006102ee6009836103b8565b91507f7478206661696c656400000000000000000000000000000000000000000000006000830152602082019050919050565b61032a816103c9565b82525050565b600061033c828461024a565b915081905092915050565b600060208201905081810360008301526103608161027b565b9050919050565b60006020820190508181036000830152610380816102e1565b9050919050565b600060208201905061039c6000830184610321565b92915050565b600081519050919050565b600081905092915050565b600082825260208201905092915050565b6000819050919050565b60005b838110156103f15780820151818401526020810190506103d6565b83811115610400576000848401525b5050505056fea264697066735822122019328114fe20426b64755a2b0d1692c9f60db451d63f72a7cbca307d2030f7b164736f6c63430008000033",
  "immutableReferences": {},
  "source": "// SPDX-License-Identifier: GPL-3.0\npragma solidity ^0.8.0;\n\nimport './Ownable.sol';\n\ncontract Item {\n    // collects the payment and sends it over to ItemManager\n    \n    uint public index;\n    uint public priceInWei;\n    ItemManager parentContract;\n    \n    constructor(ItemManager _parentContract, uint _index, uint _priceInWei) public {\n        index = _index;\n        priceInWei = _priceInWei;\n        parentContract = _parentContract;\n    }\n    \n    receive() external payable {\n        require(priceInWei <= msg.value, \"only full OR MORE payments allowed\");\n        \n        // this line alone wouldn't be enough coz we don't know which item got paid for\n        // address(parentContract).transfer(msg.value);\n        \n        // so instead we do a low level call, which we can use to also call a fn in parent contract\n        // the reason we couldn't do it with the line above is because .transfer sends exactly 21000 gas, so not enough left for contract execution\n        // note this is a low level call so we have to manually listen for the return value\n        (bool success, ) = address(parentContract).call{value:msg.value}(abi.encodeWithSignature(\"triggerPayment(uint256)\", index));\n        require(success, \"tx failed\");\n    }\n    \n    // needed for remix to interact with the SC\n    fallback() external {}\n    \n}\n\ncontract ItemManager is Ownable{\n\n    enum SupplyChainSteps{Created, Paid, Delivered}\n\n    struct S_Item {\n        Item _item;\n        ItemManager.SupplyChainSteps _step;\n        string _identifier;\n        uint _priceInWei;\n    }\n    mapping(uint => S_Item) public items;\n    uint index;\n\n    event SupplyChainStep(uint _itemIndex, uint _step, address _deliveryAddress);\n\n    function createItem(string memory _identifier, uint _priceInWei) public onlyOwner {\n        Item item = new Item(this, index, _priceInWei);\n        items[index]._item = item;\n        items[index]._priceInWei = _priceInWei;\n        items[index]._step = SupplyChainSteps.Created;\n        items[index]._identifier = _identifier;\n        emit SupplyChainStep(index, uint(items[index]._step), address(item));\n        index++;\n    }\n\n    function triggerPayment(uint _index) public payable {\n        require(items[_index]._priceInWei <= msg.value, \"Not fully paid\");\n        require(items[_index]._step == SupplyChainSteps.Created, \"Item is further in the supply chain\");\n        items[_index]._step = SupplyChainSteps.Paid;\n        emit SupplyChainStep(index, uint(items[index]._step), address(items[_index]._item));\n    }\n\n    function triggerDelivery(uint _index) public onlyOwner {\n        require(items[_index]._step == SupplyChainSteps.Paid, \"Item is further in the supply chain\");\n        items[_index]._step = SupplyChainSteps.Delivered;\n        emit SupplyChainStep(index, uint(items[index]._step), address(items[_index]._item));\n    }\n}",
  "sourcePath": "/Users/ilja/Dropbox/bc/truffle-thomas-udemy/contracts/ItemManager.sol",
  "compiler": {
    "name": "solc",
    "version": "0.8.0+commit.c7dfd78e.Emscripten.clang"
  },
  "schemaVersion": "3.3.4",
  "updatedAt": "2021-04-17T16:49:33.036Z",
  "devdoc": {
    "kind": "dev",
    "methods": {},
    "version": 1
  },
  "userdoc": {
    "kind": "user",
    "methods": {},
    "version": 1
  }
}